{"contracts/LendingPlatform.sol":{"LendingPlatform":{"abi":[{"inputs":[],"stateMutability":"nonpayable","type":"constructor"},{"inputs":[{"internalType":"address","name":"spender","type":"address"},{"internalType":"uint256","name":"allowance","type":"uint256"},{"internalType":"uint256","name":"needed","type":"uint256"}],"name":"ERC20InsufficientAllowance","type":"error"},{"inputs":[{"internalType":"address","name":"sender","type":"address"},{"internalType":"uint256","name":"balance","type":"uint256"},{"internalType":"uint256","name":"needed","type":"uint256"}],"name":"ERC20InsufficientBalance","type":"error"},{"inputs":[{"internalType":"address","name":"approver","type":"address"}],"name":"ERC20InvalidApprover","type":"error"},{"inputs":[{"internalType":"address","name":"receiver","type":"address"}],"name":"ERC20InvalidReceiver","type":"error"},{"inputs":[{"internalType":"address","name":"sender","type":"address"}],"name":"ERC20InvalidSender","type":"error"},{"inputs":[{"internalType":"address","name":"spender","type":"address"}],"name":"ERC20InvalidSpender","type":"error"},{"inputs":[],"name":"FailedCall","type":"error"},{"inputs":[{"internalType":"uint256","name":"balance","type":"uint256"},{"internalType":"uint256","name":"needed","type":"uint256"}],"name":"InsufficientBalance","type":"error"},{"inputs":[],"name":"InsufficientEther","type":"error"},{"inputs":[],"name":"InsufficientShares","type":"error"},{"inputs":[],"name":"ReentrancyGuardReentrantCall","type":"error"},{"inputs":[],"name":"ZeroAmount","type":"error"},{"anonymous":false,"inputs":[{"indexed":true,"internalType":"address","name":"owner","type":"address"},{"indexed":true,"internalType":"address","name":"spender","type":"address"},{"indexed":false,"internalType":"uint256","name":"value","type":"uint256"}],"name":"Approval","type":"event"},{"anonymous":false,"inputs":[{"indexed":true,"internalType":"address","name":"user","type":"address"},{"indexed":false,"internalType":"uint256","name":"amount","type":"uint256"}],"name":"Deposit","type":"event"},{"anonymous":false,"inputs":[{"indexed":true,"internalType":"address","name":"user","type":"address"},{"indexed":false,"internalType":"uint256","name":"amount","type":"uint256"}],"name":"PartialWithdraw","type":"event"},{"anonymous":false,"inputs":[{"indexed":true,"internalType":"address","name":"from","type":"address"},{"indexed":true,"internalType":"address","name":"to","type":"address"},{"indexed":false,"internalType":"uint256","name":"value","type":"uint256"}],"name":"Transfer","type":"event"},{"anonymous":false,"inputs":[{"indexed":true,"internalType":"address","name":"user","type":"address"},{"indexed":false,"internalType":"uint256","name":"amount","type":"uint256"}],"name":"Withdraw","type":"event"},{"inputs":[{"internalType":"address","name":"owner","type":"address"},{"internalType":"address","name":"spender","type":"address"}],"name":"allowance","outputs":[{"internalType":"uint256","name":"","type":"uint256"}],"stateMutability":"view","type":"function"},{"inputs":[{"internalType":"address","name":"spender","type":"address"},{"internalType":"uint256","name":"value","type":"uint256"}],"name":"approve","outputs":[{"internalType":"bool","name":"","type":"bool"}],"stateMutability":"nonpayable","type":"function"},{"inputs":[{"internalType":"address","name":"account","type":"address"}],"name":"balanceOf","outputs":[{"internalType":"uint256","name":"","type":"uint256"}],"stateMutability":"view","type":"function"},{"inputs":[],"name":"decimals","outputs":[{"internalType":"uint8","name":"","type":"uint8"}],"stateMutability":"view","type":"function"},{"inputs":[],"name":"deposit","outputs":[],"stateMutability":"payable","type":"function"},{"inputs":[],"name":"name","outputs":[{"internalType":"string","name":"","type":"string"}],"stateMutability":"view","type":"function"},{"inputs":[],"name":"symbol","outputs":[{"internalType":"string","name":"","type":"string"}],"stateMutability":"view","type":"function"},{"inputs":[],"name":"totalSupply","outputs":[{"internalType":"uint256","name":"","type":"uint256"}],"stateMutability":"view","type":"function"},{"inputs":[{"internalType":"address","name":"to","type":"address"},{"internalType":"uint256","name":"value","type":"uint256"}],"name":"transfer","outputs":[{"internalType":"bool","name":"","type":"bool"}],"stateMutability":"nonpayable","type":"function"},{"inputs":[{"internalType":"address","name":"from","type":"address"},{"internalType":"address","name":"to","type":"address"},{"internalType":"uint256","name":"value","type":"uint256"}],"name":"transferFrom","outputs":[{"internalType":"bool","name":"","type":"bool"}],"stateMutability":"nonpayable","type":"function"},{"inputs":[{"internalType":"uint256","name":"shares","type":"uint256"}],"name":"withdraw","outputs":[],"stateMutability":"nonpayable","type":"function"},{"inputs":[{"internalType":"uint256","name":"shares","type":"uint256"}],"name":"withdrawPartial","outputs":[],"stateMutability":"nonpayable","type":"function"},{"stateMutability":"payable","type":"receive"}],"evm":{"bytecode":{"linkReferences":{},"object":"608034620003a35760406001600160401b03828201818111848210176200038f578252600983526020682632b7322a37b5b2b760b91b81850152825193838501858110848211176200038f578452600492838652631311539160e21b838701528151958187116200037c57600390815497600194858a811c9a16801562000371575b878b10146200035e578190601f9a8b81116200030b575b5087908b8311600114620002a8575f926200029c575b50505f1982851b1c191690851b1782555b8051928311620002895785548481811c911680156200027e575b868210146200026b5788811162000223575b5084978311600114620001be57968293949596975f93620001b2575b505082841b925f19911b1c19161783555b60055530156200019c5760025469021e19e0c9bab2400000928382018092116200018957505f917fddf252ad1be2c89b69c2b068fc378daa952ba7f163c4a11628f55a4df523b3ef9160025530835282815284832084815401905584519384523093a351610a3f9081620003a88239f35b601190634e487b7160e01b5f525260245ffd5b505f602492519163ec442f0560e01b8352820152fd5b015191505f8062000107565b90601f19831697865f52855f20925f5b8a81106200020d575084869798999a10620001f3575b50505050811b01835562000118565b01519060f8845f19921b161c191690555f808080620001e4565b81830151855593860193918701918701620001ce565b865f52855f208980860160051c82019288871062000261575b0160051c019085905b82811062000255575050620000eb565b5f815501859062000245565b925081926200023c565b602287634e487b7160e01b5f525260245ffd5b90607f1690620000d9565b604186634e487b7160e01b5f525260245ffd5b015190505f80620000ae565b90879350601f19831691865f52895f20925f5b8b828210620002f45750508411620002dc575b505050811b018255620000bf565b01515f1983871b60f8161c191690555f8080620002ce565b8385015186558b97909501949384019301620002bb565b909150845f52875f208b80850160051c8201928a861062000354575b918991869594930160051c01915b8281106200034557505062000098565b5f815585945089910162000335565b9250819262000327565b602288634e487b7160e01b5f525260245ffd5b99607f169962000081565b604185634e487b7160e01b5f525260245ffd5b634e487b7160e01b5f52604160045260245ffd5b5f80fdfe6080604081815260049182361015610021575b505050361561001f575f80fd5b005b5f92833560e01c91826306fdde031461062857508163095ea7b31461057e5781631211540c1461050157816318160ddd146104e257816323b872dd146103ec5781632e1a7d4d14610361578163313ce5671461034557816370a082311461030e57816395d89b411461020b578163a9059cbb146101da578163d0e30db0146100ff575063dd62ed3e146100b45780610012565b346100fb57806003193601126100fb57806020926100d0610764565b6100d861077e565b6001600160a01b0391821683526001865283832091168252845220549051908152f35b5080fd5b9050826003193601126101d6576101146108a5565b34156101c85733156101b357600254903482018092116101a05750600255338252816020528082203481540190558051348152827fddf252ad1be2c89b69c2b068fc378daa952ba7f163c4a11628f55a4df523b3ef60203393a3513481527fe1fffcc4923d04b559f4d29a8bfc6cda04eb5b0d3c460751c2402c5c5cc9109c60203392a2600160055580f35b634e487b7160e01b845260119052602483fd5b82602492519163ec442f0560e01b8352820152fd5b9051631f2a200560e01b8152fd5b8280fd5b5050346100fb57806003193601126100fb576020906102046101fa610764565b60243590336107ca565b5160018152f35b8383346100fb57816003193601126100fb57805191809380549160019083821c92828516948515610304575b60209586861081146102f1578589529081156102cd5750600114610275575b6102718787610267828c0383610794565b519182918261071d565b0390f35b81529295507f8a35acfbc15ff81a39ae7d344fd709f28e8600b4aa8c65c6b64bfe7fe36bd19b5b8284106102ba57505050826102719461026792820101948680610256565b805486850188015292860192810161029c565b60ff19168887015250505050151560051b8301019250610267826102718680610256565b634e487b7160e01b845260228352602484fd5b93607f1693610237565b5050346100fb5760203660031901126100fb5760209181906001600160a01b03610336610764565b16815280845220549051908152f35b5050346100fb57816003193601126100fb576020905160128152f35b919050346101d65760203660031901126101d6578135916103806108a5565b82156101c857338452836020528282852054106103de57506103a282336108c8565b6103ac8233610966565b519081527f884edad9ce6fa2440d8a54cc123490eb96d2768479d49ff9c7366125a942436460203392a2600160055580f35b9051633999656760e01b8152fd5b905082346104df5760603660031901126104df57610408610764565b61041061077e565b916044359360018060a01b038316808352600160205286832033845260205286832054915f19830361044b575b6020886102048989896107ca565b8683106104b357811561049c573315610485575082526001602090815286832033845281529186902090859003905582906102048761043d565b8751634a1406b160e11b8152908101849052602490fd5b875163e602df0560e01b8152908101849052602490fd5b8751637dc7a0d960e11b8152339181019182526020820193909352604081018790528291506060010390fd5b80fd5b5050346100fb57816003193601126100fb576020906002549051908152f35b919050346101d65760203660031901126101d6578135916105206108a5565b82156101c857338452836020528282852054106103de575061054282336108c8565b61054c8233610966565b519081527fd84fcbac5440aedda6d2b5f149aa3182c87252eef5bab6f061cfe022a3e166ef60203392a2600160055580f35b9050346101d657816003193601126101d657610598610764565b602435903315610611576001600160a01b03169182156105fa57508083602095338152600187528181208582528752205582519081527f8c5be1e5ebec7d5bd14f71427d1e84f3dd0314c0f7b2291e5b200ac8c7c3b925843392a35160018152f35b8351634a1406b160e11b8152908101859052602490fd5b835163e602df0560e01b8152808401869052602490fd5b92915034610719578360031936011261071957600354600181811c918690828116801561070f575b60209586861082146106fc57508488529081156106da5750600114610681575b6102718686610267828b0383610794565b929550600383527fc2575a0e9e593c00f959f8c92f12db2869c3395a3b0502d05e2516446f71f85b5b8284106106c757505050826102719461026792820101945f610670565b80548685018801529286019281016106aa565b60ff191687860152505050151560051b8301019250610267826102715f610670565b634e487b7160e01b845260229052602483fd5b93607f1693610650565b8380fd5b602080825282518183018190529093925f5b82811061075057505060409293505f838284010152601f8019910116010190565b81810186015184820160400152850161072f565b600435906001600160a01b038216820361077a57565b5f80fd5b602435906001600160a01b038216820361077a57565b90601f8019910116810190811067ffffffffffffffff8211176107b657604052565b634e487b7160e01b5f52604160045260245ffd5b916001600160a01b0380841692831561088d5716928315610875575f9083825281602052604082205490838210610843575091604082827fddf252ad1be2c89b69c2b068fc378daa952ba7f163c4a11628f55a4df523b3ef958760209652828652038282205586815220818154019055604051908152a3565b60405163391434e360e21b81526001600160a01b03919091166004820152602481019190915260448101839052606490fd5b60405163ec442f0560e01b81525f6004820152602490fd5b604051634b637e8f60e11b81525f6004820152602490fd5b6002600554146108b6576002600555565b604051633ee5aeb560e01b8152600490fd5b906001600160a01b03821690811561088d575f92828452836020526040842054908282106109345750817fddf252ad1be2c89b69c2b068fc378daa952ba7f163c4a11628f55a4df523b3ef926020928587528684520360408620558060025403600255604051908152a3565b60405163391434e360e21b81526001600160a01b03919091166004820152602481019190915260448101829052606490fd5b8147106109ea575f80808094819460018060a01b03165af1903d156109e4573d9067ffffffffffffffff82116109d057604051916109ae601f8201601f191660200184610794565b825260203d92013e5b156109be57565b60405163d6bda27560e01b8152600490fd5b634e487b7160e01b81526041600452602490fd5b506109b7565b60405163cf47918160e01b815247600482015260248101839052604490fdfea26469706673582212204a45e7dcbd37110133b7f582499ef144d3c7ee677d8494feb4155ed14cf3dc9464736f6c63430008140033","opcodes":"PUSH1 0x80 CALLVALUE PUSH3 0x3A3 JUMPI PUSH1 0x40 PUSH1 0x1 PUSH1 0x1 PUSH1 0x40 SHL SUB DUP3 DUP3 ADD DUP2 DUP2 GT DUP5 DUP3 LT OR PUSH3 0x38F JUMPI DUP3 MSTORE PUSH1 0x9 DUP4 MSTORE PUSH1 0x20 PUSH9 0x2632B7322A37B5B2B7 PUSH1 0xB9 SHL DUP2 DUP6 ADD MSTORE DUP3 MLOAD SWAP4 DUP4 DUP6 ADD DUP6 DUP2 LT DUP5 DUP3 GT OR PUSH3 0x38F JUMPI DUP5 MSTORE PUSH1 0x4 SWAP3 DUP4 DUP7 MSTORE PUSH4 0x13115391 PUSH1 0xE2 SHL DUP4 DUP8 ADD MSTORE DUP2 MLOAD SWAP6 DUP2 DUP8 GT PUSH3 0x37C JUMPI PUSH1 0x3 SWAP1 DUP2 SLOAD SWAP8 PUSH1 0x1 SWAP5 DUP6 DUP11 DUP2 SHR SWAP11 AND DUP1 ISZERO PUSH3 0x371 JUMPI JUMPDEST DUP8 DUP12 LT EQ PUSH3 0x35E JUMPI DUP2 SWAP1 PUSH1 0x1F SWAP11 DUP12 DUP2 GT PUSH3 0x30B JUMPI JUMPDEST POP DUP8 SWAP1 DUP12 DUP4 GT PUSH1 0x1 EQ PUSH3 0x2A8 JUMPI PUSH0 SWAP3 PUSH3 0x29C JUMPI JUMPDEST POP POP PUSH0 NOT DUP3 DUP6 SHL SHR NOT AND SWAP1 DUP6 SHL OR DUP3 SSTORE JUMPDEST DUP1 MLOAD SWAP3 DUP4 GT PUSH3 0x289 JUMPI DUP6 SLOAD DUP5 DUP2 DUP2 SHR SWAP2 AND DUP1 ISZERO PUSH3 0x27E JUMPI JUMPDEST DUP7 DUP3 LT EQ PUSH3 0x26B JUMPI DUP9 DUP2 GT PUSH3 0x223 JUMPI JUMPDEST POP DUP5 SWAP8 DUP4 GT PUSH1 0x1 EQ PUSH3 0x1BE JUMPI SWAP7 DUP3 SWAP4 SWAP5 SWAP6 SWAP7 SWAP8 PUSH0 SWAP4 PUSH3 0x1B2 JUMPI JUMPDEST POP POP DUP3 DUP5 SHL SWAP3 PUSH0 NOT SWAP2 SHL SHR NOT AND OR DUP4 SSTORE JUMPDEST PUSH1 0x5 SSTORE ADDRESS ISZERO PUSH3 0x19C JUMPI PUSH1 0x2 SLOAD PUSH10 0x21E19E0C9BAB2400000 SWAP3 DUP4 DUP3 ADD DUP1 SWAP3 GT PUSH3 0x189 JUMPI POP PUSH0 SWAP2 PUSH32 0xDDF252AD1BE2C89B69C2B068FC378DAA952BA7F163C4A11628F55A4DF523B3EF SWAP2 PUSH1 0x2 SSTORE ADDRESS DUP4 MSTORE DUP3 DUP2 MSTORE DUP5 DUP4 KECCAK256 DUP5 DUP2 SLOAD ADD SWAP1 SSTORE DUP5 MLOAD SWAP4 DUP5 MSTORE ADDRESS SWAP4 LOG3 MLOAD PUSH2 0xA3F SWAP1 DUP2 PUSH3 0x3A8 DUP3 CODECOPY RETURN JUMPDEST PUSH1 0x11 SWAP1 PUSH4 0x4E487B71 PUSH1 0xE0 SHL PUSH0 MSTORE MSTORE PUSH1 0x24 PUSH0 REVERT JUMPDEST POP PUSH0 PUSH1 0x24 SWAP3 MLOAD SWAP2 PUSH4 0xEC442F05 PUSH1 0xE0 SHL DUP4 MSTORE DUP3 ADD MSTORE REVERT JUMPDEST ADD MLOAD SWAP2 POP PUSH0 DUP1 PUSH3 0x107 JUMP JUMPDEST SWAP1 PUSH1 0x1F NOT DUP4 AND SWAP8 DUP7 PUSH0 MSTORE DUP6 PUSH0 KECCAK256 SWAP3 PUSH0 JUMPDEST DUP11 DUP2 LT PUSH3 0x20D JUMPI POP DUP5 DUP7 SWAP8 SWAP9 SWAP10 SWAP11 LT PUSH3 0x1F3 JUMPI JUMPDEST POP POP POP POP DUP2 SHL ADD DUP4 SSTORE PUSH3 0x118 JUMP JUMPDEST ADD MLOAD SWAP1 PUSH1 0xF8 DUP5 PUSH0 NOT SWAP3 SHL AND SHR NOT AND SWAP1 SSTORE PUSH0 DUP1 DUP1 DUP1 PUSH3 0x1E4 JUMP JUMPDEST DUP2 DUP4 ADD MLOAD DUP6 SSTORE SWAP4 DUP7 ADD SWAP4 SWAP2 DUP8 ADD SWAP2 DUP8 ADD PUSH3 0x1CE JUMP JUMPDEST DUP7 PUSH0 MSTORE DUP6 PUSH0 KECCAK256 DUP10 DUP1 DUP7 ADD PUSH1 0x5 SHR DUP3 ADD SWAP3 DUP9 DUP8 LT PUSH3 0x261 JUMPI JUMPDEST ADD PUSH1 0x5 SHR ADD SWAP1 DUP6 SWAP1 JUMPDEST DUP3 DUP2 LT PUSH3 0x255 JUMPI POP POP PUSH3 0xEB JUMP JUMPDEST PUSH0 DUP2 SSTORE ADD DUP6 SWAP1 PUSH3 0x245 JUMP JUMPDEST SWAP3 POP DUP2 SWAP3 PUSH3 0x23C JUMP JUMPDEST PUSH1 0x22 DUP8 PUSH4 0x4E487B71 PUSH1 0xE0 SHL PUSH0 MSTORE MSTORE PUSH1 0x24 PUSH0 REVERT JUMPDEST SWAP1 PUSH1 0x7F AND SWAP1 PUSH3 0xD9 JUMP JUMPDEST PUSH1 0x41 DUP7 PUSH4 0x4E487B71 PUSH1 0xE0 SHL PUSH0 MSTORE MSTORE PUSH1 0x24 PUSH0 REVERT JUMPDEST ADD MLOAD SWAP1 POP PUSH0 DUP1 PUSH3 0xAE JUMP JUMPDEST SWAP1 DUP8 SWAP4 POP PUSH1 0x1F NOT DUP4 AND SWAP2 DUP7 PUSH0 MSTORE DUP10 PUSH0 KECCAK256 SWAP3 PUSH0 JUMPDEST DUP12 DUP3 DUP3 LT PUSH3 0x2F4 JUMPI POP POP DUP5 GT PUSH3 0x2DC JUMPI JUMPDEST POP POP POP DUP2 SHL ADD DUP3 SSTORE PUSH3 0xBF JUMP JUMPDEST ADD MLOAD PUSH0 NOT DUP4 DUP8 SHL PUSH1 0xF8 AND SHR NOT AND SWAP1 SSTORE PUSH0 DUP1 DUP1 PUSH3 0x2CE JUMP JUMPDEST DUP4 DUP6 ADD MLOAD DUP7 SSTORE DUP12 SWAP8 SWAP1 SWAP6 ADD SWAP5 SWAP4 DUP5 ADD SWAP4 ADD PUSH3 0x2BB JUMP JUMPDEST SWAP1 SWAP2 POP DUP5 PUSH0 MSTORE DUP8 PUSH0 KECCAK256 DUP12 DUP1 DUP6 ADD PUSH1 0x5 SHR DUP3 ADD SWAP3 DUP11 DUP7 LT PUSH3 0x354 JUMPI JUMPDEST SWAP2 DUP10 SWAP2 DUP7 SWAP6 SWAP5 SWAP4 ADD PUSH1 0x5 SHR ADD SWAP2 JUMPDEST DUP3 DUP2 LT PUSH3 0x345 JUMPI POP POP PUSH3 0x98 JUMP JUMPDEST PUSH0 DUP2 SSTORE DUP6 SWAP5 POP DUP10 SWAP2 ADD PUSH3 0x335 JUMP JUMPDEST SWAP3 POP DUP2 SWAP3 PUSH3 0x327 JUMP JUMPDEST PUSH1 0x22 DUP9 PUSH4 0x4E487B71 PUSH1 0xE0 SHL PUSH0 MSTORE MSTORE PUSH1 0x24 PUSH0 REVERT JUMPDEST SWAP10 PUSH1 0x7F AND SWAP10 PUSH3 0x81 JUMP JUMPDEST PUSH1 0x41 DUP6 PUSH4 0x4E487B71 PUSH1 0xE0 SHL PUSH0 MSTORE MSTORE PUSH1 0x24 PUSH0 REVERT JUMPDEST PUSH4 0x4E487B71 PUSH1 0xE0 SHL PUSH0 MSTORE PUSH1 0x41 PUSH1 0x4 MSTORE PUSH1 0x24 PUSH0 REVERT JUMPDEST PUSH0 DUP1 REVERT INVALID PUSH1 0x80 PUSH1 0x40 DUP2 DUP2 MSTORE PUSH1 0x4 SWAP2 DUP3 CALLDATASIZE LT ISZERO PUSH2 0x21 JUMPI JUMPDEST POP POP POP CALLDATASIZE ISZERO PUSH2 0x1F JUMPI PUSH0 DUP1 REVERT JUMPDEST STOP JUMPDEST PUSH0 SWAP3 DUP4 CALLDATALOAD PUSH1 0xE0 SHR SWAP2 DUP3 PUSH4 0x6FDDE03 EQ PUSH2 0x628 JUMPI POP DUP2 PUSH4 0x95EA7B3 EQ PUSH2 0x57E JUMPI DUP2 PUSH4 0x1211540C EQ PUSH2 0x501 JUMPI DUP2 PUSH4 0x18160DDD EQ PUSH2 0x4E2 JUMPI DUP2 PUSH4 0x23B872DD EQ PUSH2 0x3EC JUMPI DUP2 PUSH4 0x2E1A7D4D EQ PUSH2 0x361 JUMPI DUP2 PUSH4 0x313CE567 EQ PUSH2 0x345 JUMPI DUP2 PUSH4 0x70A08231 EQ PUSH2 0x30E JUMPI DUP2 PUSH4 0x95D89B41 EQ PUSH2 0x20B JUMPI DUP2 PUSH4 0xA9059CBB EQ PUSH2 0x1DA JUMPI DUP2 PUSH4 0xD0E30DB0 EQ PUSH2 0xFF JUMPI POP PUSH4 0xDD62ED3E EQ PUSH2 0xB4 JUMPI DUP1 PUSH2 0x12 JUMP JUMPDEST CALLVALUE PUSH2 0xFB JUMPI DUP1 PUSH1 0x3 NOT CALLDATASIZE ADD SLT PUSH2 0xFB JUMPI DUP1 PUSH1 0x20 SWAP3 PUSH2 0xD0 PUSH2 0x764 JUMP JUMPDEST PUSH2 0xD8 PUSH2 0x77E JUMP JUMPDEST PUSH1 0x1 PUSH1 0x1 PUSH1 0xA0 SHL SUB SWAP2 DUP3 AND DUP4 MSTORE PUSH1 0x1 DUP7 MSTORE DUP4 DUP4 KECCAK256 SWAP2 AND DUP3 MSTORE DUP5 MSTORE KECCAK256 SLOAD SWAP1 MLOAD SWAP1 DUP2 MSTORE RETURN JUMPDEST POP DUP1 REVERT JUMPDEST SWAP1 POP DUP3 PUSH1 0x3 NOT CALLDATASIZE ADD SLT PUSH2 0x1D6 JUMPI PUSH2 0x114 PUSH2 0x8A5 JUMP JUMPDEST CALLVALUE ISZERO PUSH2 0x1C8 JUMPI CALLER ISZERO PUSH2 0x1B3 JUMPI PUSH1 0x2 SLOAD SWAP1 CALLVALUE DUP3 ADD DUP1 SWAP3 GT PUSH2 0x1A0 JUMPI POP PUSH1 0x2 SSTORE CALLER DUP3 MSTORE DUP2 PUSH1 0x20 MSTORE DUP1 DUP3 KECCAK256 CALLVALUE DUP2 SLOAD ADD SWAP1 SSTORE DUP1 MLOAD CALLVALUE DUP2 MSTORE DUP3 PUSH32 0xDDF252AD1BE2C89B69C2B068FC378DAA952BA7F163C4A11628F55A4DF523B3EF PUSH1 0x20 CALLER SWAP4 LOG3 MLOAD CALLVALUE DUP2 MSTORE PUSH32 0xE1FFFCC4923D04B559F4D29A8BFC6CDA04EB5B0D3C460751C2402C5C5CC9109C PUSH1 0x20 CALLER SWAP3 LOG2 PUSH1 0x1 PUSH1 0x5 SSTORE DUP1 RETURN JUMPDEST PUSH4 0x4E487B71 PUSH1 0xE0 SHL DUP5 MSTORE PUSH1 0x11 SWAP1 MSTORE PUSH1 0x24 DUP4 REVERT JUMPDEST DUP3 PUSH1 0x24 SWAP3 MLOAD SWAP2 PUSH4 0xEC442F05 PUSH1 0xE0 SHL DUP4 MSTORE DUP3 ADD MSTORE REVERT JUMPDEST SWAP1 MLOAD PUSH4 0x1F2A2005 PUSH1 0xE0 SHL DUP2 MSTORE REVERT JUMPDEST DUP3 DUP1 REVERT JUMPDEST POP POP CALLVALUE PUSH2 0xFB JUMPI DUP1 PUSH1 0x3 NOT CALLDATASIZE ADD SLT PUSH2 0xFB JUMPI PUSH1 0x20 SWAP1 PUSH2 0x204 PUSH2 0x1FA PUSH2 0x764 JUMP JUMPDEST PUSH1 0x24 CALLDATALOAD SWAP1 CALLER PUSH2 0x7CA JUMP JUMPDEST MLOAD PUSH1 0x1 DUP2 MSTORE RETURN JUMPDEST DUP4 DUP4 CALLVALUE PUSH2 0xFB JUMPI DUP2 PUSH1 0x3 NOT CALLDATASIZE ADD SLT PUSH2 0xFB JUMPI DUP1 MLOAD SWAP2 DUP1 SWAP4 DUP1 SLOAD SWAP2 PUSH1 0x1 SWAP1 DUP4 DUP3 SHR SWAP3 DUP3 DUP6 AND SWAP5 DUP6 ISZERO PUSH2 0x304 JUMPI JUMPDEST PUSH1 0x20 SWAP6 DUP7 DUP7 LT DUP2 EQ PUSH2 0x2F1 JUMPI DUP6 DUP10 MSTORE SWAP1 DUP2 ISZERO PUSH2 0x2CD JUMPI POP PUSH1 0x1 EQ PUSH2 0x275 JUMPI JUMPDEST PUSH2 0x271 DUP8 DUP8 PUSH2 0x267 DUP3 DUP13 SUB DUP4 PUSH2 0x794 JUMP JUMPDEST MLOAD SWAP2 DUP3 SWAP2 DUP3 PUSH2 0x71D JUMP JUMPDEST SUB SWAP1 RETURN JUMPDEST DUP2 MSTORE SWAP3 SWAP6 POP PUSH32 0x8A35ACFBC15FF81A39AE7D344FD709F28E8600B4AA8C65C6B64BFE7FE36BD19B JUMPDEST DUP3 DUP5 LT PUSH2 0x2BA JUMPI POP POP POP DUP3 PUSH2 0x271 SWAP5 PUSH2 0x267 SWAP3 DUP3 ADD ADD SWAP5 DUP7 DUP1 PUSH2 0x256 JUMP JUMPDEST DUP1 SLOAD DUP7 DUP6 ADD DUP9 ADD MSTORE SWAP3 DUP7 ADD SWAP3 DUP2 ADD PUSH2 0x29C JUMP JUMPDEST PUSH1 0xFF NOT AND DUP9 DUP8 ADD MSTORE POP POP POP POP ISZERO ISZERO PUSH1 0x5 SHL DUP4 ADD ADD SWAP3 POP PUSH2 0x267 DUP3 PUSH2 0x271 DUP7 DUP1 PUSH2 0x256 JUMP JUMPDEST PUSH4 0x4E487B71 PUSH1 0xE0 SHL DUP5 MSTORE PUSH1 0x22 DUP4 MSTORE PUSH1 0x24 DUP5 REVERT JUMPDEST SWAP4 PUSH1 0x7F AND SWAP4 PUSH2 0x237 JUMP JUMPDEST POP POP CALLVALUE PUSH2 0xFB JUMPI PUSH1 0x20 CALLDATASIZE PUSH1 0x3 NOT ADD SLT PUSH2 0xFB JUMPI PUSH1 0x20 SWAP2 DUP2 SWAP1 PUSH1 0x1 PUSH1 0x1 PUSH1 0xA0 SHL SUB PUSH2 0x336 PUSH2 0x764 JUMP JUMPDEST AND DUP2 MSTORE DUP1 DUP5 MSTORE KECCAK256 SLOAD SWAP1 MLOAD SWAP1 DUP2 MSTORE RETURN JUMPDEST POP POP CALLVALUE PUSH2 0xFB JUMPI DUP2 PUSH1 0x3 NOT CALLDATASIZE ADD SLT PUSH2 0xFB JUMPI PUSH1 0x20 SWAP1 MLOAD PUSH1 0x12 DUP2 MSTORE RETURN JUMPDEST SWAP2 SWAP1 POP CALLVALUE PUSH2 0x1D6 JUMPI PUSH1 0x20 CALLDATASIZE PUSH1 0x3 NOT ADD SLT PUSH2 0x1D6 JUMPI DUP2 CALLDATALOAD SWAP2 PUSH2 0x380 PUSH2 0x8A5 JUMP JUMPDEST DUP3 ISZERO PUSH2 0x1C8 JUMPI CALLER DUP5 MSTORE DUP4 PUSH1 0x20 MSTORE DUP3 DUP3 DUP6 KECCAK256 SLOAD LT PUSH2 0x3DE JUMPI POP PUSH2 0x3A2 DUP3 CALLER PUSH2 0x8C8 JUMP JUMPDEST PUSH2 0x3AC DUP3 CALLER PUSH2 0x966 JUMP JUMPDEST MLOAD SWAP1 DUP2 MSTORE PUSH32 0x884EDAD9CE6FA2440D8A54CC123490EB96D2768479D49FF9C7366125A9424364 PUSH1 0x20 CALLER SWAP3 LOG2 PUSH1 0x1 PUSH1 0x5 SSTORE DUP1 RETURN JUMPDEST SWAP1 MLOAD PUSH4 0x39996567 PUSH1 0xE0 SHL DUP2 MSTORE REVERT JUMPDEST SWAP1 POP DUP3 CALLVALUE PUSH2 0x4DF JUMPI PUSH1 0x60 CALLDATASIZE PUSH1 0x3 NOT ADD SLT PUSH2 0x4DF JUMPI PUSH2 0x408 PUSH2 0x764 JUMP JUMPDEST PUSH2 0x410 PUSH2 0x77E JUMP JUMPDEST SWAP2 PUSH1 0x44 CALLDATALOAD SWAP4 PUSH1 0x1 DUP1 PUSH1 0xA0 SHL SUB DUP4 AND DUP1 DUP4 MSTORE PUSH1 0x1 PUSH1 0x20 MSTORE DUP7 DUP4 KECCAK256 CALLER DUP5 MSTORE PUSH1 0x20 MSTORE DUP7 DUP4 KECCAK256 SLOAD SWAP2 PUSH0 NOT DUP4 SUB PUSH2 0x44B JUMPI JUMPDEST PUSH1 0x20 DUP9 PUSH2 0x204 DUP10 DUP10 DUP10 PUSH2 0x7CA JUMP JUMPDEST DUP7 DUP4 LT PUSH2 0x4B3 JUMPI DUP2 ISZERO PUSH2 0x49C JUMPI CALLER ISZERO PUSH2 0x485 JUMPI POP DUP3 MSTORE PUSH1 0x1 PUSH1 0x20 SWAP1 DUP2 MSTORE DUP7 DUP4 KECCAK256 CALLER DUP5 MSTORE DUP2 MSTORE SWAP2 DUP7 SWAP1 KECCAK256 SWAP1 DUP6 SWAP1 SUB SWAP1 SSTORE DUP3 SWAP1 PUSH2 0x204 DUP8 PUSH2 0x43D JUMP JUMPDEST DUP8 MLOAD PUSH4 0x4A1406B1 PUSH1 0xE1 SHL DUP2 MSTORE SWAP1 DUP2 ADD DUP5 SWAP1 MSTORE PUSH1 0x24 SWAP1 REVERT JUMPDEST DUP8 MLOAD PUSH4 0xE602DF05 PUSH1 0xE0 SHL DUP2 MSTORE SWAP1 DUP2 ADD DUP5 SWAP1 MSTORE PUSH1 0x24 SWAP1 REVERT JUMPDEST DUP8 MLOAD PUSH4 0x7DC7A0D9 PUSH1 0xE1 SHL DUP2 MSTORE CALLER SWAP2 DUP2 ADD SWAP2 DUP3 MSTORE PUSH1 0x20 DUP3 ADD SWAP4 SWAP1 SWAP4 MSTORE PUSH1 0x40 DUP2 ADD DUP8 SWAP1 MSTORE DUP3 SWAP2 POP PUSH1 0x60 ADD SUB SWAP1 REVERT JUMPDEST DUP1 REVERT JUMPDEST POP POP CALLVALUE PUSH2 0xFB JUMPI DUP2 PUSH1 0x3 NOT CALLDATASIZE ADD SLT PUSH2 0xFB JUMPI PUSH1 0x20 SWAP1 PUSH1 0x2 SLOAD SWAP1 MLOAD SWAP1 DUP2 MSTORE RETURN JUMPDEST SWAP2 SWAP1 POP CALLVALUE PUSH2 0x1D6 JUMPI PUSH1 0x20 CALLDATASIZE PUSH1 0x3 NOT ADD SLT PUSH2 0x1D6 JUMPI DUP2 CALLDATALOAD SWAP2 PUSH2 0x520 PUSH2 0x8A5 JUMP JUMPDEST DUP3 ISZERO PUSH2 0x1C8 JUMPI CALLER DUP5 MSTORE DUP4 PUSH1 0x20 MSTORE DUP3 DUP3 DUP6 KECCAK256 SLOAD LT PUSH2 0x3DE JUMPI POP PUSH2 0x542 DUP3 CALLER PUSH2 0x8C8 JUMP JUMPDEST PUSH2 0x54C DUP3 CALLER PUSH2 0x966 JUMP JUMPDEST MLOAD SWAP1 DUP2 MSTORE PUSH32 0xD84FCBAC5440AEDDA6D2B5F149AA3182C87252EEF5BAB6F061CFE022A3E166EF PUSH1 0x20 CALLER SWAP3 LOG2 PUSH1 0x1 PUSH1 0x5 SSTORE DUP1 RETURN JUMPDEST SWAP1 POP CALLVALUE PUSH2 0x1D6 JUMPI DUP2 PUSH1 0x3 NOT CALLDATASIZE ADD SLT PUSH2 0x1D6 JUMPI PUSH2 0x598 PUSH2 0x764 JUMP JUMPDEST PUSH1 0x24 CALLDATALOAD SWAP1 CALLER ISZERO PUSH2 0x611 JUMPI PUSH1 0x1 PUSH1 0x1 PUSH1 0xA0 SHL SUB AND SWAP2 DUP3 ISZERO PUSH2 0x5FA JUMPI POP DUP1 DUP4 PUSH1 0x20 SWAP6 CALLER DUP2 MSTORE PUSH1 0x1 DUP8 MSTORE DUP2 DUP2 KECCAK256 DUP6 DUP3 MSTORE DUP8 MSTORE KECCAK256 SSTORE DUP3 MLOAD SWAP1 DUP2 MSTORE PUSH32 0x8C5BE1E5EBEC7D5BD14F71427D1E84F3DD0314C0F7B2291E5B200AC8C7C3B925 DUP5 CALLER SWAP3 LOG3 MLOAD PUSH1 0x1 DUP2 MSTORE RETURN JUMPDEST DUP4 MLOAD PUSH4 0x4A1406B1 PUSH1 0xE1 SHL DUP2 MSTORE SWAP1 DUP2 ADD DUP6 SWAP1 MSTORE PUSH1 0x24 SWAP1 REVERT JUMPDEST DUP4 MLOAD PUSH4 0xE602DF05 PUSH1 0xE0 SHL DUP2 MSTORE DUP1 DUP5 ADD DUP7 SWAP1 MSTORE PUSH1 0x24 SWAP1 REVERT JUMPDEST SWAP3 SWAP2 POP CALLVALUE PUSH2 0x719 JUMPI DUP4 PUSH1 0x3 NOT CALLDATASIZE ADD SLT PUSH2 0x719 JUMPI PUSH1 0x3 SLOAD PUSH1 0x1 DUP2 DUP2 SHR SWAP2 DUP7 SWAP1 DUP3 DUP2 AND DUP1 ISZERO PUSH2 0x70F JUMPI JUMPDEST PUSH1 0x20 SWAP6 DUP7 DUP7 LT DUP3 EQ PUSH2 0x6FC JUMPI POP DUP5 DUP9 MSTORE SWAP1 DUP2 ISZERO PUSH2 0x6DA JUMPI POP PUSH1 0x1 EQ PUSH2 0x681 JUMPI JUMPDEST PUSH2 0x271 DUP7 DUP7 PUSH2 0x267 DUP3 DUP12 SUB DUP4 PUSH2 0x794 JUMP JUMPDEST SWAP3 SWAP6 POP PUSH1 0x3 DUP4 MSTORE PUSH32 0xC2575A0E9E593C00F959F8C92F12DB2869C3395A3B0502D05E2516446F71F85B JUMPDEST DUP3 DUP5 LT PUSH2 0x6C7 JUMPI POP POP POP DUP3 PUSH2 0x271 SWAP5 PUSH2 0x267 SWAP3 DUP3 ADD ADD SWAP5 PUSH0 PUSH2 0x670 JUMP JUMPDEST DUP1 SLOAD DUP7 DUP6 ADD DUP9 ADD MSTORE SWAP3 DUP7 ADD SWAP3 DUP2 ADD PUSH2 0x6AA JUMP JUMPDEST PUSH1 0xFF NOT AND DUP8 DUP7 ADD MSTORE POP POP POP ISZERO ISZERO PUSH1 0x5 SHL DUP4 ADD ADD SWAP3 POP PUSH2 0x267 DUP3 PUSH2 0x271 PUSH0 PUSH2 0x670 JUMP JUMPDEST PUSH4 0x4E487B71 PUSH1 0xE0 SHL DUP5 MSTORE PUSH1 0x22 SWAP1 MSTORE PUSH1 0x24 DUP4 REVERT JUMPDEST SWAP4 PUSH1 0x7F AND SWAP4 PUSH2 0x650 JUMP JUMPDEST DUP4 DUP1 REVERT JUMPDEST PUSH1 0x20 DUP1 DUP3 MSTORE DUP3 MLOAD DUP2 DUP4 ADD DUP2 SWAP1 MSTORE SWAP1 SWAP4 SWAP3 PUSH0 JUMPDEST DUP3 DUP2 LT PUSH2 0x750 JUMPI POP POP PUSH1 0x40 SWAP3 SWAP4 POP PUSH0 DUP4 DUP3 DUP5 ADD ADD MSTORE PUSH1 0x1F DUP1 NOT SWAP2 ADD AND ADD ADD SWAP1 JUMP JUMPDEST DUP2 DUP2 ADD DUP7 ADD MLOAD DUP5 DUP3 ADD PUSH1 0x40 ADD MSTORE DUP6 ADD PUSH2 0x72F JUMP JUMPDEST PUSH1 0x4 CALLDATALOAD SWAP1 PUSH1 0x1 PUSH1 0x1 PUSH1 0xA0 SHL SUB DUP3 AND DUP3 SUB PUSH2 0x77A JUMPI JUMP JUMPDEST PUSH0 DUP1 REVERT JUMPDEST PUSH1 0x24 CALLDATALOAD SWAP1 PUSH1 0x1 PUSH1 0x1 PUSH1 0xA0 SHL SUB DUP3 AND DUP3 SUB PUSH2 0x77A JUMPI JUMP JUMPDEST SWAP1 PUSH1 0x1F DUP1 NOT SWAP2 ADD AND DUP2 ADD SWAP1 DUP2 LT PUSH8 0xFFFFFFFFFFFFFFFF DUP3 GT OR PUSH2 0x7B6 JUMPI PUSH1 0x40 MSTORE JUMP JUMPDEST PUSH4 0x4E487B71 PUSH1 0xE0 SHL PUSH0 MSTORE PUSH1 0x41 PUSH1 0x4 MSTORE PUSH1 0x24 PUSH0 REVERT JUMPDEST SWAP2 PUSH1 0x1 PUSH1 0x1 PUSH1 0xA0 SHL SUB DUP1 DUP5 AND SWAP3 DUP4 ISZERO PUSH2 0x88D JUMPI AND SWAP3 DUP4 ISZERO PUSH2 0x875 JUMPI PUSH0 SWAP1 DUP4 DUP3 MSTORE DUP2 PUSH1 0x20 MSTORE PUSH1 0x40 DUP3 KECCAK256 SLOAD SWAP1 DUP4 DUP3 LT PUSH2 0x843 JUMPI POP SWAP2 PUSH1 0x40 DUP3 DUP3 PUSH32 0xDDF252AD1BE2C89B69C2B068FC378DAA952BA7F163C4A11628F55A4DF523B3EF SWAP6 DUP8 PUSH1 0x20 SWAP7 MSTORE DUP3 DUP7 MSTORE SUB DUP3 DUP3 KECCAK256 SSTORE DUP7 DUP2 MSTORE KECCAK256 DUP2 DUP2 SLOAD ADD SWAP1 SSTORE PUSH1 0x40 MLOAD SWAP1 DUP2 MSTORE LOG3 JUMP JUMPDEST PUSH1 0x40 MLOAD PUSH4 0x391434E3 PUSH1 0xE2 SHL DUP2 MSTORE PUSH1 0x1 PUSH1 0x1 PUSH1 0xA0 SHL SUB SWAP2 SWAP1 SWAP2 AND PUSH1 0x4 DUP3 ADD MSTORE PUSH1 0x24 DUP2 ADD SWAP2 SWAP1 SWAP2 MSTORE PUSH1 0x44 DUP2 ADD DUP4 SWAP1 MSTORE PUSH1 0x64 SWAP1 REVERT JUMPDEST PUSH1 0x40 MLOAD PUSH4 0xEC442F05 PUSH1 0xE0 SHL DUP2 MSTORE PUSH0 PUSH1 0x4 DUP3 ADD MSTORE PUSH1 0x24 SWAP1 REVERT JUMPDEST PUSH1 0x40 MLOAD PUSH4 0x4B637E8F PUSH1 0xE1 SHL DUP2 MSTORE PUSH0 PUSH1 0x4 DUP3 ADD MSTORE PUSH1 0x24 SWAP1 REVERT JUMPDEST PUSH1 0x2 PUSH1 0x5 SLOAD EQ PUSH2 0x8B6 JUMPI PUSH1 0x2 PUSH1 0x5 SSTORE JUMP JUMPDEST PUSH1 0x40 MLOAD PUSH4 0x3EE5AEB5 PUSH1 0xE0 SHL DUP2 MSTORE PUSH1 0x4 SWAP1 REVERT JUMPDEST SWAP1 PUSH1 0x1 PUSH1 0x1 PUSH1 0xA0 SHL SUB DUP3 AND SWAP1 DUP2 ISZERO PUSH2 0x88D JUMPI PUSH0 SWAP3 DUP3 DUP5 MSTORE DUP4 PUSH1 0x20 MSTORE PUSH1 0x40 DUP5 KECCAK256 SLOAD SWAP1 DUP3 DUP3 LT PUSH2 0x934 JUMPI POP DUP2 PUSH32 0xDDF252AD1BE2C89B69C2B068FC378DAA952BA7F163C4A11628F55A4DF523B3EF SWAP3 PUSH1 0x20 SWAP3 DUP6 DUP8 MSTORE DUP7 DUP5 MSTORE SUB PUSH1 0x40 DUP7 KECCAK256 SSTORE DUP1 PUSH1 0x2 SLOAD SUB PUSH1 0x2 SSTORE PUSH1 0x40 MLOAD SWAP1 DUP2 MSTORE LOG3 JUMP JUMPDEST PUSH1 0x40 MLOAD PUSH4 0x391434E3 PUSH1 0xE2 SHL DUP2 MSTORE PUSH1 0x1 PUSH1 0x1 PUSH1 0xA0 SHL SUB SWAP2 SWAP1 SWAP2 AND PUSH1 0x4 DUP3 ADD MSTORE PUSH1 0x24 DUP2 ADD SWAP2 SWAP1 SWAP2 MSTORE PUSH1 0x44 DUP2 ADD DUP3 SWAP1 MSTORE PUSH1 0x64 SWAP1 REVERT JUMPDEST DUP2 SELFBALANCE LT PUSH2 0x9EA JUMPI PUSH0 DUP1 DUP1 DUP1 SWAP5 DUP2 SWAP5 PUSH1 0x1 DUP1 PUSH1 0xA0 SHL SUB AND GAS CALL SWAP1 RETURNDATASIZE ISZERO PUSH2 0x9E4 JUMPI RETURNDATASIZE SWAP1 PUSH8 0xFFFFFFFFFFFFFFFF DUP3 GT PUSH2 0x9D0 JUMPI PUSH1 0x40 MLOAD SWAP2 PUSH2 0x9AE PUSH1 0x1F DUP3 ADD PUSH1 0x1F NOT AND PUSH1 0x20 ADD DUP5 PUSH2 0x794 JUMP JUMPDEST DUP3 MSTORE PUSH1 0x20 RETURNDATASIZE SWAP3 ADD RETURNDATACOPY JUMPDEST ISZERO PUSH2 0x9BE JUMPI JUMP JUMPDEST PUSH1 0x40 MLOAD PUSH4 0xD6BDA275 PUSH1 0xE0 SHL DUP2 MSTORE PUSH1 0x4 SWAP1 REVERT JUMPDEST PUSH4 0x4E487B71 PUSH1 0xE0 SHL DUP2 MSTORE PUSH1 0x41 PUSH1 0x4 MSTORE PUSH1 0x24 SWAP1 REVERT JUMPDEST POP PUSH2 0x9B7 JUMP JUMPDEST PUSH1 0x40 MLOAD PUSH4 0xCF479181 PUSH1 0xE0 SHL DUP2 MSTORE SELFBALANCE PUSH1 0x4 DUP3 ADD MSTORE PUSH1 0x24 DUP2 ADD DUP4 SWAP1 MSTORE PUSH1 0x44 SWAP1 REVERT INVALID LOG2 PUSH5 0x6970667358 0x22 SLT KECCAK256 0x4A GASLIMIT 0xE7 0xDC 0xBD CALLDATACOPY GT ADD CALLER 0xB7 CREATE2 DUP3 0x49 SWAP15 CALL PREVRANDAO 0xD3 0xC7 0xEE PUSH8 0x7D8494FEB4155ED1 0x4C RETURN 0xDC SWAP5 PUSH5 0x736F6C6343 STOP ADDMOD EQ STOP CALLER "},"methodIdentifiers":{"allowance(address,address)":"dd62ed3e","approve(address,uint256)":"095ea7b3","balanceOf(address)":"70a08231","decimals()":"313ce567","deposit()":"d0e30db0","name()":"06fdde03","symbol()":"95d89b41","totalSupply()":"18160ddd","transfer(address,uint256)":"a9059cbb","transferFrom(address,address,uint256)":"23b872dd","withdraw(uint256)":"2e1a7d4d","withdrawPartial(uint256)":"1211540c"}}}}}