{
  "_format": "hh-sol-artifact-1",
  "contractName": "LendingPlatform",
  "sourceName": "contracts/LendingPlatform.sol",
  "abi": [
    {
      "inputs": [],
      "stateMutability": "nonpayable",
      "type": "constructor"
    },
    {
      "inputs": [
        {
          "internalType": "address",
          "name": "spender",
          "type": "address"
        },
        {
          "internalType": "uint256",
          "name": "allowance",
          "type": "uint256"
        },
        {
          "internalType": "uint256",
          "name": "needed",
          "type": "uint256"
        }
      ],
      "name": "ERC20InsufficientAllowance",
      "type": "error"
    },
    {
      "inputs": [
        {
          "internalType": "address",
          "name": "sender",
          "type": "address"
        },
        {
          "internalType": "uint256",
          "name": "balance",
          "type": "uint256"
        },
        {
          "internalType": "uint256",
          "name": "needed",
          "type": "uint256"
        }
      ],
      "name": "ERC20InsufficientBalance",
      "type": "error"
    },
    {
      "inputs": [
        {
          "internalType": "address",
          "name": "approver",
          "type": "address"
        }
      ],
      "name": "ERC20InvalidApprover",
      "type": "error"
    },
    {
      "inputs": [
        {
          "internalType": "address",
          "name": "receiver",
          "type": "address"
        }
      ],
      "name": "ERC20InvalidReceiver",
      "type": "error"
    },
    {
      "inputs": [
        {
          "internalType": "address",
          "name": "sender",
          "type": "address"
        }
      ],
      "name": "ERC20InvalidSender",
      "type": "error"
    },
    {
      "inputs": [
        {
          "internalType": "address",
          "name": "spender",
          "type": "address"
        }
      ],
      "name": "ERC20InvalidSpender",
      "type": "error"
    },
    {
      "inputs": [],
      "name": "FailedCall",
      "type": "error"
    },
    {
      "inputs": [
        {
          "internalType": "uint256",
          "name": "balance",
          "type": "uint256"
        },
        {
          "internalType": "uint256",
          "name": "needed",
          "type": "uint256"
        }
      ],
      "name": "InsufficientBalance",
      "type": "error"
    },
    {
      "inputs": [],
      "name": "InsufficientEther",
      "type": "error"
    },
    {
      "inputs": [],
      "name": "InsufficientShares",
      "type": "error"
    },
    {
      "inputs": [],
      "name": "ReentrancyGuardReentrantCall",
      "type": "error"
    },
    {
      "inputs": [],
      "name": "ZeroAmount",
      "type": "error"
    },
    {
      "anonymous": false,
      "inputs": [
        {
          "indexed": true,
          "internalType": "address",
          "name": "owner",
          "type": "address"
        },
        {
          "indexed": true,
          "internalType": "address",
          "name": "spender",
          "type": "address"
        },
        {
          "indexed": false,
          "internalType": "uint256",
          "name": "value",
          "type": "uint256"
        }
      ],
      "name": "Approval",
      "type": "event"
    },
    {
      "anonymous": false,
      "inputs": [
        {
          "indexed": true,
          "internalType": "address",
          "name": "user",
          "type": "address"
        },
        {
          "indexed": false,
          "internalType": "uint256",
          "name": "amount",
          "type": "uint256"
        }
      ],
      "name": "Deposit",
      "type": "event"
    },
    {
      "anonymous": false,
      "inputs": [
        {
          "indexed": true,
          "internalType": "address",
          "name": "user",
          "type": "address"
        },
        {
          "indexed": false,
          "internalType": "uint256",
          "name": "amount",
          "type": "uint256"
        }
      ],
      "name": "PartialWithdraw",
      "type": "event"
    },
    {
      "anonymous": false,
      "inputs": [
        {
          "indexed": true,
          "internalType": "address",
          "name": "from",
          "type": "address"
        },
        {
          "indexed": true,
          "internalType": "address",
          "name": "to",
          "type": "address"
        },
        {
          "indexed": false,
          "internalType": "uint256",
          "name": "value",
          "type": "uint256"
        }
      ],
      "name": "Transfer",
      "type": "event"
    },
    {
      "anonymous": false,
      "inputs": [
        {
          "indexed": true,
          "internalType": "address",
          "name": "user",
          "type": "address"
        },
        {
          "indexed": false,
          "internalType": "uint256",
          "name": "amount",
          "type": "uint256"
        }
      ],
      "name": "Withdraw",
      "type": "event"
    },
    {
      "inputs": [
        {
          "internalType": "address",
          "name": "owner",
          "type": "address"
        },
        {
          "internalType": "address",
          "name": "spender",
          "type": "address"
        }
      ],
      "name": "allowance",
      "outputs": [
        {
          "internalType": "uint256",
          "name": "",
          "type": "uint256"
        }
      ],
      "stateMutability": "view",
      "type": "function"
    },
    {
      "inputs": [
        {
          "internalType": "address",
          "name": "spender",
          "type": "address"
        },
        {
          "internalType": "uint256",
          "name": "value",
          "type": "uint256"
        }
      ],
      "name": "approve",
      "outputs": [
        {
          "internalType": "bool",
          "name": "",
          "type": "bool"
        }
      ],
      "stateMutability": "nonpayable",
      "type": "function"
    },
    {
      "inputs": [
        {
          "internalType": "address",
          "name": "account",
          "type": "address"
        }
      ],
      "name": "balanceOf",
      "outputs": [
        {
          "internalType": "uint256",
          "name": "",
          "type": "uint256"
        }
      ],
      "stateMutability": "view",
      "type": "function"
    },
    {
      "inputs": [],
      "name": "decimals",
      "outputs": [
        {
          "internalType": "uint8",
          "name": "",
          "type": "uint8"
        }
      ],
      "stateMutability": "view",
      "type": "function"
    },
    {
      "inputs": [],
      "name": "deposit",
      "outputs": [],
      "stateMutability": "payable",
      "type": "function"
    },
    {
      "inputs": [],
      "name": "name",
      "outputs": [
        {
          "internalType": "string",
          "name": "",
          "type": "string"
        }
      ],
      "stateMutability": "view",
      "type": "function"
    },
    {
      "inputs": [],
      "name": "symbol",
      "outputs": [
        {
          "internalType": "string",
          "name": "",
          "type": "string"
        }
      ],
      "stateMutability": "view",
      "type": "function"
    },
    {
      "inputs": [],
      "name": "totalSupply",
      "outputs": [
        {
          "internalType": "uint256",
          "name": "",
          "type": "uint256"
        }
      ],
      "stateMutability": "view",
      "type": "function"
    },
    {
      "inputs": [
        {
          "internalType": "address",
          "name": "to",
          "type": "address"
        },
        {
          "internalType": "uint256",
          "name": "value",
          "type": "uint256"
        }
      ],
      "name": "transfer",
      "outputs": [
        {
          "internalType": "bool",
          "name": "",
          "type": "bool"
        }
      ],
      "stateMutability": "nonpayable",
      "type": "function"
    },
    {
      "inputs": [
        {
          "internalType": "address",
          "name": "from",
          "type": "address"
        },
        {
          "internalType": "address",
          "name": "to",
          "type": "address"
        },
        {
          "internalType": "uint256",
          "name": "value",
          "type": "uint256"
        }
      ],
      "name": "transferFrom",
      "outputs": [
        {
          "internalType": "bool",
          "name": "",
          "type": "bool"
        }
      ],
      "stateMutability": "nonpayable",
      "type": "function"
    },
    {
      "inputs": [],
      "name": "withdraw",
      "outputs": [],
      "stateMutability": "nonpayable",
      "type": "function"
    },
    {
      "inputs": [
        {
          "internalType": "uint256",
          "name": "shares",
          "type": "uint256"
        }
      ],
      "name": "withdrawPartial",
      "outputs": [],
      "stateMutability": "nonpayable",
      "type": "function"
    },
    {
      "stateMutability": "payable",
      "type": "receive"
    }
  ],
  "bytecode": "0x608034620003a35760406001600160401b03828201818111848210176200038f578252600983526020682632b7322a37b5b2b760b91b81850152825193838501858110848211176200038f578452600492838652631311539160e21b838701528151958187116200037c57600390815497600194858a811c9a16801562000371575b878b10146200035e578190601f9a8b81116200030b575b5087908b8311600114620002a8575f926200029c575b50505f1982851b1c191690851b1782555b8051928311620002895785548481811c911680156200027e575b868210146200026b5788811162000223575b5084978311600114620001be57968293949596975f93620001b2575b505082841b925f19911b1c19161783555b60055530156200019c5760025469021e19e0c9bab2400000928382018092116200018957505f917fddf252ad1be2c89b69c2b068fc378daa952ba7f163c4a11628f55a4df523b3ef9160025530835282815284832084815401905584519384523093a351610a369081620003a88239f35b601190634e487b7160e01b5f525260245ffd5b505f602492519163ec442f0560e01b8352820152fd5b015191505f8062000107565b90601f19831697865f52855f20925f5b8a81106200020d575084869798999a10620001f3575b50505050811b01835562000118565b01519060f8845f19921b161c191690555f808080620001e4565b81830151855593860193918701918701620001ce565b865f52855f208980860160051c82019288871062000261575b0160051c019085905b82811062000255575050620000eb565b5f815501859062000245565b925081926200023c565b602287634e487b7160e01b5f525260245ffd5b90607f1690620000d9565b604186634e487b7160e01b5f525260245ffd5b015190505f80620000ae565b90879350601f19831691865f52895f20925f5b8b828210620002f45750508411620002dc575b505050811b018255620000bf565b01515f1983871b60f8161c191690555f8080620002ce565b8385015186558b97909501949384019301620002bb565b909150845f52875f208b80850160051c8201928a861062000354575b918991869594930160051c01915b8281106200034557505062000098565b5f815585945089910162000335565b9250819262000327565b602288634e487b7160e01b5f525260245ffd5b99607f169962000081565b604185634e487b7160e01b5f525260245ffd5b634e487b7160e01b5f52604160045260245ffd5b5f80fdfe6080604081815260049182361015610021575b505050361561001f575f80fd5b005b5f92833560e01c91826306fdde031461061f57508163095ea7b3146105755781631211540c146104f857816318160ddd146104d957816323b872dd146103e3578163313ce567146103c75781633ccfd60b1461034557816370a082311461030e57816395d89b411461020b578163a9059cbb146101da578163d0e30db0146100ff575063dd62ed3e146100b45780610012565b346100fb57806003193601126100fb57806020926100d061075b565b6100d8610775565b6001600160a01b0391821683526001865283832091168252845220549051908152f35b5080fd5b9050826003193601126101d65761011461089c565b34156101c85733156101b357600254903482018092116101a05750600255338252816020528082203481540190558051348152827fddf252ad1be2c89b69c2b068fc378daa952ba7f163c4a11628f55a4df523b3ef60203393a3513481527fe1fffcc4923d04b559f4d29a8bfc6cda04eb5b0d3c460751c2402c5c5cc9109c60203392a2600160055580f35b634e487b7160e01b845260119052602483fd5b82602492519163ec442f0560e01b8352820152fd5b9051631f2a200560e01b8152fd5b8280fd5b5050346100fb57806003193601126100fb576020906102046101fa61075b565b60243590336107c1565b5160018152f35b8383346100fb57816003193601126100fb57805191809380549160019083821c92828516948515610304575b60209586861081146102f1578589529081156102cd5750600114610275575b6102718787610267828c038361078b565b5191829182610714565b0390f35b81529295507f8a35acfbc15ff81a39ae7d344fd709f28e8600b4aa8c65c6b64bfe7fe36bd19b5b8284106102ba57505050826102719461026792820101948680610256565b805486850188015292860192810161029c565b60ff19168887015250505050151560051b8301019250610267826102718680610256565b634e487b7160e01b845260228352602484fd5b93607f1693610237565b5050346100fb5760203660031901126100fb5760209181906001600160a01b0361033661075b565b16815280845220549051908152f35b919050346101d657826003193601126101d65761036061089c565b33835282602052808320549182156103b9575061037d82336108bf565b610387823361095d565b519081527f884edad9ce6fa2440d8a54cc123490eb96d2768479d49ff9c7366125a942436460203392a2600160055580f35b9051633999656760e01b8152fd5b5050346100fb57816003193601126100fb576020905160128152f35b905082346104d65760603660031901126104d6576103ff61075b565b610407610775565b916044359360018060a01b038316808352600160205286832033845260205286832054915f198303610442575b6020886102048989896107c1565b8683106104aa57811561049357331561047c5750825260016020908152868320338452815291869020908590039055829061020487610434565b8751634a1406b160e11b8152908101849052602490fd5b875163e602df0560e01b8152908101849052602490fd5b8751637dc7a0d960e11b8152339181019182526020820193909352604081018790528291506060010390fd5b80fd5b5050346100fb57816003193601126100fb576020906002549051908152f35b919050346101d65760203660031901126101d65781359161051761089c565b82156101c857338452836020528282852054106103b9575061053982336108bf565b610543823361095d565b519081527fd84fcbac5440aedda6d2b5f149aa3182c87252eef5bab6f061cfe022a3e166ef60203392a2600160055580f35b9050346101d657816003193601126101d65761058f61075b565b602435903315610608576001600160a01b03169182156105f157508083602095338152600187528181208582528752205582519081527f8c5be1e5ebec7d5bd14f71427d1e84f3dd0314c0f7b2291e5b200ac8c7c3b925843392a35160018152f35b8351634a1406b160e11b8152908101859052602490fd5b835163e602df0560e01b8152808401869052602490fd5b92915034610710578360031936011261071057600354600181811c9186908281168015610706575b60209586861082146106f357508488529081156106d15750600114610678575b6102718686610267828b038361078b565b929550600383527fc2575a0e9e593c00f959f8c92f12db2869c3395a3b0502d05e2516446f71f85b5b8284106106be57505050826102719461026792820101945f610667565b80548685018801529286019281016106a1565b60ff191687860152505050151560051b8301019250610267826102715f610667565b634e487b7160e01b845260229052602483fd5b93607f1693610647565b8380fd5b602080825282518183018190529093925f5b82811061074757505060409293505f838284010152601f8019910116010190565b818101860151848201604001528501610726565b600435906001600160a01b038216820361077157565b5f80fd5b602435906001600160a01b038216820361077157565b90601f8019910116810190811067ffffffffffffffff8211176107ad57604052565b634e487b7160e01b5f52604160045260245ffd5b916001600160a01b03808416928315610884571692831561086c575f908382528160205260408220549083821061083a575091604082827fddf252ad1be2c89b69c2b068fc378daa952ba7f163c4a11628f55a4df523b3ef958760209652828652038282205586815220818154019055604051908152a3565b60405163391434e360e21b81526001600160a01b03919091166004820152602481019190915260448101839052606490fd5b60405163ec442f0560e01b81525f6004820152602490fd5b604051634b637e8f60e11b81525f6004820152602490fd5b6002600554146108ad576002600555565b604051633ee5aeb560e01b8152600490fd5b906001600160a01b038216908115610884575f928284528360205260408420549082821061092b5750817fddf252ad1be2c89b69c2b068fc378daa952ba7f163c4a11628f55a4df523b3ef926020928587528684520360408620558060025403600255604051908152a3565b60405163391434e360e21b81526001600160a01b03919091166004820152602481019190915260448101829052606490fd5b8147106109e1575f80808094819460018060a01b03165af1903d156109db573d9067ffffffffffffffff82116109c757604051916109a5601f8201601f19166020018461078b565b825260203d92013e5b156109b557565b60405163d6bda27560e01b8152600490fd5b634e487b7160e01b81526041600452602490fd5b506109ae565b60405163cf47918160e01b815247600482015260248101839052604490fdfea264697066735822122039339d952ddf3055ef23239c30935c1c2a4d5202b501b8f31abcef0a6c16b48064736f6c63430008140033",
  "linkReferences": {},
  "deployedLinkReferences": {}
}